:020000040800F2
:1000000040070020D1000008592B0008E921000812
:1000100000000000000000000000000000000000E0
:10002000000000000000000000000000392D000862
:1000300000000000000000005B2B0008CD34000829
:10004000E3000008E3000008E3000008E300000804
:10005000E3000008E3000008C1050008E50500080A
:10006000E300000801050008E3000008E3000008C1
:10007000E3000008E3000008E3000008E3000008D4
:10008000E3000008E3000008E3000008E3000008C4
:10009000E3000008E3000008E3000008E3000008B4
:1000A000E3000008E3000008E300000851400008F6
:1000B000E3000008E3000008E30000080348854669
:1000C00000F0A2F8004800479147000840070020D0
:1000D0000448804704480047FEE7FEE7FEE7FEE7E6
:1000E000FEE7FEE733350008BD00000830B50B46DB
:1000F000014600202022012409E00D46D5409D4202
:1001000005D31D469540491B254695404019154687
:10011000521E002DF1DC30BDF0B51FB406460020A4
:1001200082B005464024019100901BE001992246CF
:100130000F46304600F057F8049A059B801A994103
:1001400010D310461946224600F03DF8361A8F416A
:100150000197224601200021009F00F034F8381852
:100160004D4100902046641E0028DFDC019B009872
:100170002946324607B0F0BDD2B201E00270401C01
:10018000491EFBD270470022F6E710B513460A4617
:1001900004461946FFF7F0FF204610BD421C0178C7
:1001A000401C0029FBD1801A704710B5002200E0E6
:1001B000521C835C8C5CA34201D1002BF8D1D8B2D5
:1001C000E1B2401A10BD10B5202A04DB0146203AE6
:1001D0009140002010BD914020239C1A0346E3402B
:1001E0001943904010BD10B5202A04DB0846203A80
:1001F000D040002110BD0B46D340D0402024A21A8D
:1002000091400843194610BD064C0125064E05E0F5
:10021000E36807CC2B430C3C98471034B442F7D327
:10022000FFF750FF645900088459000810B50448CE
:10023000002181704172817202F072FF10BD0000D6
:100240000400002010B5074800218170C1700171C1
:1002500041718171C17101724172817202F060FF5E
:1002600010BD00000400002070B51D4CA07A0028CD
:100270002ED00020A072607A00280CD0012818D05F
:1002800000F0D8F9A178007800291ED000F002F91A
:1002900002F046FF70BD00F0C1F90146002008568B
:1002A000A178002902D000F0E1F8F1E700F094F81D
:1002B000EEE700F0CBF9A1780078002902D000F039
:1002C00007F9E5E700F0BAF8E2E700F099F8DFE7B0
:1002D0000125A57200F038FC2061E572D8E7000026
:1002E0000400002010B50748002181728278002A9E
:1002F00004D08170417202F013FF10BD01228270A0
:10030000F8E700000400002070B5264C0546A17AED
:100310002046407A002933D0002810D0012822D06E
:1003200000F088F90078002828D0002500F082F934
:10033000057000F009FC20610120E0722CE000F063
:100340006DF9002D05DD002141560C2926DA491CE6
:1003500007E0002D22DA002141563C22D1421DDD6A
:10036000491E0170E5E700F071F90078002803D01C
:10037000002500F06BF9DBE70125FAE70125D5E759
:10038000002D05DD0321401CFFF7B0FE617203E084
:10039000002804D0401E607202F0C2FE70BD022030
:1003A000F9E700000400002010B50A4CA07A0028EC
:1003B0000ED000F0C9FB2169FF22411A913291420F
:1003C00006D32061E07A01214840E07202F0A8FEE5
:1003D00010BD00000400002000B5C3B000900190E3
:1003E0000346FF210290054A013103A803F04AFEAB
:1003F00003A804F045F843B000BD00000057000812
:1004000000B5C5B0002802D0312009A301E030209A
:1004100008A3009001900290FF210390064A013149
:1004200004A803F02FFE04A804F02AF845B000BD8C
:100430003731000037320000D455000800B5C3B092
:10044000002801D0312300E03023FF2100930193E5
:10045000054A013103A8029303F014FE03A804F037
:100460000FF843B000BD00007456000800B5C3B0DB
:10047000009001900346FF210290054A013103A834
:1004800003F000FE03A803F0FBFF43B000BD000033
:10049000C858000800B5C5B0002802D0312009A313
:1004A00001E0302008A3009001900290FF2103900A
:1004B000064A013104A803F0E5FD04A803F0E0FFBB
:1004C00045B000BD37370000373800009C570008A2
:1004D00000B5C3B0002801D0312300E03023FF2154
:1004E00000930193054A013103A8029303F0CAFD6A
:1004F00003A803F0C5FF43B000BD00003C5800084E
:1005000010B5024800F01CF910BD0000DC0200200C
:10051000F8B504460668406C0D4F8508F0B2AD0092
:1005200014210838FFF7E2FDBE4203D209496918D9
:10053000A16404E007491C316918C01DA164054984
:100540008031E164C106C90E012088402065F8BDF4
:1005500008040240000802400179084B4906490E90
:100560008A00D2184265054A4432491E82658A07CC
:10057000920F01219140C16570470000FC080240C4
:1005800030B5C46C056D6560446D002C02D0846D7F
:10059000C56D6560446C1C252C400125A540046C8C
:1005A0006560046863608368102B036803D09960FA
:1005B0000068C26030BD9A600068C16030BD000054
:1005C00010B50748C168090702D40169090705D5B4
:1005D0000821C1600161084600F0D2F910BD000099
:1005E0000018024010B50748C168C90602D4016965
:1005F000C90605D51021C1600161084600F0C0F9A7
:1006000010BD0000001802400248002101700121C5
:10061000417070470400002072B6FEE704488078FD
:10062000002802D00248801D70470148C01C704756
:100630000400002004488078002802D002480830D6
:1006400070470148401D704704000020044880782E
:10065000002802D00248C01D70470148001D7047A5
:100660000400002070B5002808D0014620314A79E6
:100670000024022A04D00422C2630C71012070BD40
:10068000026813685B085B001360026813680E253C
:10069000AB431360826C1368FF250135AB431360D5
:1006A000436C1C221340012216469E40036C5E6080
:1006B000C36C066D5E60436D002B05D01E68AE43B3
:1006C0001E60C36D806D43604A710C71002070BD67
:1006D00070B50024014620314A79022A03D0042152
:1006E000C16301242AE0026813685B085B001360A1
:1006F000026813680E25AB431360826C1368FF25F4
:100700000135AB431360436C1C2213400122164693
:100710009E40036C5E60C36C066D5E60436D002B93
:1007200005D01E68AE431E60836DC56D5D604A7165
:1007300000220A71816B002900D08847204670BDD5
:10074000F0B4016C0D6801680C68466C1C2204232F
:1007500016401F46B7402F420ED067070CD50C68D5
:10076000A40602D40C689C430C60416C11408B4081
:10077000016C4B60016B24E00227B74003462F4019
:100780002033002F21D0A7071FD50C68A40605D45D
:100790000C680A25AC430C6001215971174C0168A3
:1007A000A142446C04D914400221A140144A04E03F
:1007B00014400221114AA140803A51600021197170
:1007C000C16A002918D0F0BC08470827B7402F425B
:1007D00012D0240710D50C680E25AC430C60446C75
:1007E000012114400A46A240046C6260C163597141
:1007F00000211971416BE4E7F0BC704780000240B2
:100800000004024070B504000CD02D4825688542D4
:100810000AD22C4814212818FFF768FC8000606475
:1008200029480BE0012070BD2548142140422818BA
:10083000FFF75CFC800060642148083820640220D7
:100840002646203670712868204908402860E168F3
:10085000A06862690843216911430843A1690843FC
:10086000E1690843216A084321680A681043086067
:100870002046FFF74DFE0121A0688903002588422C
:1008800000D165602079A16C4006400E0860E06CE4
:10089000216D41606068401E032808D82046FFF79C
:1008A0005BFE606D0560A06DE16D416002E0656515
:1008B000A565E565E563012070713571002070BDA7
:1008C00008040240F8FFFDBF000002400F80FFFF58
:1008D000F8B504468C4620300179002501290BD05B
:1008E0000126067141790027012907D08021E163A3
:1008F000077101252846F8BD0220F8BD022141718B
:10090000E7632068016849084900016061462046A4
:10091000FFF736FE206B00282068016801D00E2208
:1009200005E0042291430160206801680A22114316
:100930000160A06C0168CA03074902D502680A4336
:100940000260606D002802D002680A4302602068DD
:10095000016831430160CDE70001000070B5044635
:1009600000F0F2F80546601C02D004480078241814
:1009700000F0EAF8401BA042FAD370BD5C000020F2
:1009800010B5044600F0E0F8102C14D10D49CA68E7
:10099000821A052A0FD3C86020210B4800F0C8F83E
:1009A000012809D00024E44301F0A4FE00282046D9
:1009B00004D001F0ABFF10BD0124F5E7FFF7A4FC64
:1009C00010BD00000400002000040050F0B500231A
:1009D00003249DE001259D402A4072D00E79B60780
:1009E000B60F012E01D0022E16D186682746B446D6
:1009F0005E00B646B7406646BE43B446CF6876460C
:100A0000B7406646374387604668AE430D79ED06CA
:100A1000ED0F9D40354345600D79ED43AD0708D09E
:100A2000C5685F002646BE40B5438E68BE402E4373
:100A3000C6600D79AD07AD0F022D0ED1DD08AD00FA
:100A40002D18AC462D6A5E07F60E0F27B740BD4342
:100A50000F69B7402F4365462F6205685F00264641
:100A6000BE40B5430E79B607B60FBE402E430660B2
:100A70004D68AD03AD0F4AD09E08284DB6007519DC
:100A8000AC462D6E9E07F60E0F27B740BD430527D7
:100A90003F07B84201D1002715E0214FB84201D1EC
:100AA000012710E01F4FB84201D102270BE01E4F73
:100AB000B84201D1032706E01C4FB84202D10427F7
:100AC00001E024E00527B7402F43144D6646376602
:100AD0002D684E689543F60200D515430F4F3D60D3
:100AE0007D684E689543B60200D515437D600B4E78
:100AF000803675684F689543BF0300D51543756010
:100B000035684F689543FF0300D5154335605B1C7E
:100B10000A681546DD4000D05CE7F0BD00180240D1
:100B20000004005000080050000C0050001000505D
:100B30000069084000D001207047002A01D081617F
:100B4000704781627047000001488068704700006C
:100B50005C00002002488168027889188160704733
:100B60005C00002010B5084800240168821511437C
:100B70000160032000F00AF8002801D0012401E000
:100B800000F028F8204610BD0020024070B50F4E3E
:100B9000002431780546002915D07D20C000FFF7DC
:100BA000A5FA01460A480068FFF7A0FA00F022FE05
:100BB000002808D1042D06D200222946401E00F04C
:100BC0002FF8756000E00124204670BD5C00002015
:100BD0006800002008B50B4801680122114301603C
:100BE00000681040009007484038C26B01040A4377
:100BF000C263C06B084000900320400200F0F0FD8B
:100C000008BD000040100240002805DBC106C90EE7
:100C100001208840014908607047000000E100E0C1
:100C200010B503F053FA10BD10B50F4C2168032224
:100C30005202914301432160C11FFF39FA390ED19D
:100C40000A480621006848430949FFF74FFA401C4B
:100C500002E0002805D0401E61694905F9D4002052
:100C600010BD032010BD000000700040680000208F
:100C700040420F00FEB5044600680027984D994E8B
:100C8000800355D500200090F06BC00007D4F16BB5
:100C9000A8050143F163F16B0140012000909248E7
:100CA0000168821511430160FFF74EFF019005E0D6
:100CB000FFF74AFF0199401A022825D88A480068A0
:100CC000C005F5D5E8690321090208400FD0216C61
:100CD00081420CD0E86903210902EA6988430121B5
:100CE00009040A43EA61EA698A43EA61E861C007E4
:100CF0000FD0FFF729FF019008E0FFF725FF0199CA
:100D0000411A7A48814201D9032709E0E86980073E
:100D1000F3D5E869032109028843216C0843E8619F
:100D20000098002804D0F16B012000078143F16393
:100D30002078C00705D06869616880088000084392
:100D400068612078800705D568690C218843A1680F
:100D5000084368612078400705D5686930218843D9
:100D6000E168084368612078C00606D568690321F8
:100D7000890288432169084368612088C00406D538
:100D80006869032109028843616908436861208812
:100D9000800506D56869032189048843A16A084350
:100DA00068612088400506D56869032109058843E4
:100DB000E16A084368612078800606D568690321E6
:100DC00009038843A169084368612078400606D575
:100DD0006869032189038843E169084368612088C1
:100DE00040040ED56869216B800080080843686163
:100DF0000121206B8907884203D1F06889130843D9
:100E0000F0602068000305D5686940218843616B64
:100E1000084368612068810235480BD569698210F2
:100E2000A36B914319436961A16B914202D1F168AF
:100E30000143F160216849020AD56969E26B814387
:100E400011436961E16B814202D1F1680143F160B4
:100E5000218809050DD5A969226A890889001143ED
:100E6000A961216A012904D1F16801221204114308
:100E7000F160218889040DD5A9690C229143626A29
:100E80001143A961616A042904D1F16801221204A5
:100E90001143F1602168C9010ED5A969032212032B
:100EA0009143626C1143A9610122616C520391422A
:100EB00002D1F1680143F160216889010DD5A9696A
:100EC000032212029143A26C1143A961A26CD11FAB
:100ED000F93902D1F1680143F1603846FEBD0000E6
:100EE00040100240001002400070004088130000D3
:100EF00000000001F8B50F46060043D04D4D2868AC
:100F00004007400FB84213D22868C008C0003843D9
:100F10002860FFF719FE044605E0FFF715FE011BE8
:100F20004548814261D828684007400FB842F4D153
:100F30003068424C81070DD5400704D5A0680721D1
:100F400009030843A060A0680F2109028843B16823
:100F50000843A0603078C00732D0706801280AD0FA
:100F600002280BD000280FD03449403103280ED07E
:100F7000C969890704E02168890301E021688901C2
:100F8000002906DB0120F8BD21684905F8E7096A58
:100F9000EFE7A168C908C9000143A160FFF7D4FDCC
:100FA000009006E0FFF7D0FD0099411A22488142E7
:100FB0001BD8A068382108407168C9008842F1D167
:100FC00028684007400FB84217D91A480168C90875
:100FD000C90039430160FFF7B7FD054607E0FFF799
:100FE000B3FD411B1448814201D90320F8BD1148CB
:100FF00000684007400FB842F1D13078400706D56D
:10100000A068072109038843F1680843A06000F045
:1010100031F8A1683C2289091140094A515CC9068E
:10102000C90EC8400749086007480068FFF7AEFDD1
:10103000F8BD0000002002408813000000100240AC
:10104000F4540008680000206000002006480749AA
:1010500000688968064A4904490F8900515CC9063D
:10106000C90EC84070470000680000200010024010
:101070003455000810B5204CA068204A8006400F67
:1010800016D0A0688006410F501001290FD0A1682A
:101090008906490F022912D0A0688006400F042853
:1010A00023D0A0688006400F032821D0002010BD67
:1010B000206801218004400F8140104612E0E16861
:1010C0008B07E1689B0F4906490F491C032B00D091
:1010D0001046FFF70BF8E1684904490E4843E16800
:1010E000490F491CFFF702F810BD0120C00310BDD5
:1010F0007D20000210BD0000001002400024F4001A
:10110000F8B504007ED020783827C007FE4D0028AF
:1011100046D0A868E96838408907890F102802D0AE
:1011200008280BD001E0032908D0012062680004E0
:1011300082420AD129680143296015E028688003AA
:101140002ED560680028DDD02AE0052301211B048C
:1011500089049A422A6802D10A432A60EAE7824354
:101160002A60286888432860606800280CD0FFF750
:10117000EBFC064604E0FFF7E7FC801B642873D80D
:1011800028688003F7D50BE0FFF7DEFC064604E095
:10119000FFF7DAFC801B6428F1D828688003F7D4B5
:1011A0002078800769D5A868E96838408A07072150
:1011B000920FC902102802D0002813D001E0022AA1
:1011C00010D0E068002846D0286888432169084389
:1011D00028602868FF21013108432860FFF7B4FC2C
:1011E00006462CE02A68520502D5E268002A89D01A
:1011F0006A687F231B029A4363691B021A436A6071
:10120000002800E08DE00ED128688843216908435A
:101210002860286801218004400F8140BB48FEF708
:1012200065FFBB490860BB480068FFF7AFFC0028BA
:1012300077D122E0FFF788FC801B02289FD828681E
:101240004005F7D568687F21090288436169090272
:101250000843686011E02968FF200130814329605C
:10126000FFF772FC064605E0B5E0FFF76DFC801B5A
:10127000022884D828684005F7D42078A64E0007B5
:101280002ED5A8688006400F03280AD0A069002840
:10129000306A16D0012108433062FFF755FC07463B
:1012A0000BE0306A80071BD5A06900289FD017E0AB
:1012B000FFF74AFCC01B0228C0D8306A8007F7D568
:1012C0000EE0400840003062FFF73EFC074604E0B5
:1012D000FFF73AFCC01B02287DD8306A8007F7D49C
:1012E000207840076BD5A86800278006400F0428A7
:1012F00018D0E86BC00008D4E96B01200007014357
:10130000E963E96B01400127009184480168C90540
:1013100019D40168821511430160FFF715FC009094
:101320000DE083E0F069800749D5A06800287DD0F2
:1013300045E0FFF709FC0099401A02284BD877488E
:101340000068C005F5D5A168012910D00420052941
:10135000F16911D049084900F161F1698143F161F6
:10136000A068002816D0FFF7EFFB00900EE0F069B0
:1013700001210843F061F3E70143F161F7E7FFF76B
:10138000E3FB0099411A6648814224D8F06980073E
:10139000F5D50DE0FFF7D8FB009006E0FFF7D4FB92
:1013A0000099411A5E4881427FD8F0698007F5D4E0
:1013B000002F04D0E96B012000078143E963207806
:1013C000800624D50120E16980050029296810D014
:1013D0000143296000E068E0FFF7B6FB064604E041
:1013E000FFF7B2FB801B02285FD828680002F7D500
:1013F0000DE081432960FFF7A7FB064604E0FFF7F5
:10140000A3FB801B022850D828680002F7D4206A6A
:10141000002844D0A9688906490F02294FD0012627
:1014200036060228286807D0B04300E07FE0286035
:10143000FFF78AFB04463AE0B0432860FFF784FBDD
:10144000074604E0FFF780FBC01B02282DD8286860
:101450008001F7D4A16A606AE26A0843216B120234
:1014600011430843616B0843A16B0843E9682D4AA7
:1014700011400843E860286830432860E86801218B
:1014800009070843E860FFF75FFB044604E0FFF745
:101490005BFB001B022808D828688001F7D548E0CC
:1014A000FFF752FB001B022801D90320F8BD286872
:1014B0008001F5D4E8681C490840E86039E001285B
:1014C000F4D0E868626A8107890F91422FD17021B8
:1014D000A26A014091422AD17F21E26A09020140B9
:1014E0001202914223D11F214904226B01409142F3
:1014F0001DD107214906626B0140914217D1400F6F
:10150000A16B4007884211E0001002400024F40063
:101510006800002060000020401002400070004081
:10152000881300008C80C111FCFFFEEE01D0012069
:10153000F8BD0020F8BDF8B504000CD0606A0025A5
:1015400000280AD02561656126464036A562707F75
:10155000002808D00BE00120F8BD6168C81FFD38E5
:10156000F2D0E561F0E73577204600F05BF8022223
:101570007277206801684023994301600723E1687E
:101580001B02994201D9002001E0012000030F272E
:101590003F02B94202D0994200D0A562FF236168A0
:1015A000053319402127A368BF023B401943236933
:1015B0001340227D1943D207D20F11430123A269A0
:1015C0005B021A401143E26938231A401143226A30
:1015D00080231A401143A26A9B011A4011432268DA
:1015E0001160A1690422090C1140626A10231A409B
:1015F0001143626B08231A4011430F23E2681B0258
:101600001A40114301221203104001432068416037
:101610002068C16952109143C1612566012070772D
:101620000020F8BD10B586B0044614216846FEF7C8
:10163000AAFD1049206888421AD10F48C26B0914CC
:101640000A43C263C26B0A400592426B02210A43FD
:101650004263406B0191084005900520C002009054
:10166000002002900390049069460448FFF7AEF909
:1016700006B010BD003800400010024000040050C9
:10168000FFB581B017460446FFF75EFA25464035A0
:101690000090687F012837D10298002871D0002F70
:1016A0006FD0287F01282FD001202877032068776A
:1016B000002626660298A063A787E7872664AE8087
:1016C000EE802665E6640122A068D20340219042A4
:1016D00008D1206802688A430260206802680B0211
:1016E0001A43026020680268520602D402680A4364
:1016F00002600720E1680002814260682AD9002860
:1017000005D0012F03D021E0022005B0F0BDA06B71
:1017100021680088C86006E020688168890709D5CB
:10172000A16B0988C160A06B801CA063E08F401E84
:10173000E0870BE0FFF708FA0099411A049881420C
:1017400002D3401C02D039E0002837D0E08F0028B7
:10175000E2D126E0002801D0012F1FD1A06B216823
:101760000078087306E02068816889070AD5A16BB4
:1017700009780173A06B401CA063E08F401EE087D6
:101780000CE02AE0FFF7E0F90099411A0498814241
:1017900002D3401C02D011E000280FD0E08F0028B7
:1017A000E1D12046009A049901F0D8F9002801D02F
:1017B00020202066A068002805D008E00120687776
:1017C0002E770320A1E72068C1688068009001207F
:1017D00068772E77206E002897D0012095E70000CB
:1017E00003490A6803235B029A4302430A60704775
:1017F00000000140094910B5401E884201D901206E
:1018000010BD074C60610321081F02F05FFC00203F
:10181000A06107202061002010BD0000FFFFFF0035
:1018200000E000E0F0B5034620331A7F012A2DD0F6
:1018300001221A7702225A7705686A68AC68144E4A
:10184000B54204D10F273F05BA434F683A4370278A
:10185000BA430F6817436F600068B0420CD0012292
:101860009207904208D00B4A904205D00A4A904213
:1018700002D00A4A904204D18022896894432143CD
:1018800081600120587700201877F0BD0220F0BD5C
:10189000002C0140000400400008004000400140CE
:1018A00010B586B0044614216846FEF76CFC0D495D
:1018B0002068884214D10C48426B04210A434263D9
:1018C000406B08400590802000900220019000208D
:1018D000029003900120049069460448FFF776F8CF
:1018E00006B010BD00040040001002400008005087
:1018F000F8B504460020264620360090307F0D467D
:1019000001280CD00120082730770C2A48D008DCA9
:10191000002A10D0042A1ED0082A06D130E0022066
:10192000F8BD102A52D0142A60D001200090002067
:1019300030770098F8BD206801F064FE2068816966
:101940003943816120688169042291438161206863
:1019500081692A6911E0206801F09CFE2068816994
:101960000122D202114381612068816952109143A2
:101970008161206881692A69120211438161D6E779
:10198000206801F0CBFE2068C1693943C16120683D
:10199000C16904229143C1612068C1692A6912E0CA
:1019A000206801F0FFFE2068C1690122D2021143C4
:1019B000C1612068C269012189028A43C26120682D
:1019C000C1692A6912021143C161B0E7206801F0C0
:1019D00023FF2068416D394341652068426D042131
:1019E0008A4342652068416D2A6912E0206801F04F
:1019F00047FF2068416D0122D202114341652068F2
:101A0000426D012189028A4342652068416D2A693D
:101A10001202114341658AE770B5040005D02546DE
:101A20002035687F002802D006E0012070BD00202C
:101A30002877204600F016F802206877211D2068DC
:101A400001F078FD012240342272AA77EA772270F1
:101A50006270A270E27022716271A271E2716A77A3
:101A6000002070BD08B500680549884207D10548C7
:101A7000C26B02210A43C263C06B0840009008BDDC
:101A8000000400400010024030B50446022320301C
:101A900000290ED0042911D020464030082912D048
:101AA0000C2915D0102918D0C278012A1AD001208B
:101AB00030BD827F012AFAD1837714E0C27F012AE8
:101AC000F5D1C3770FE00278012AF0D103700AE064
:101AD0004278012AEBD1437005E08278012AE6D1F1
:101AE000837000E0C3700122206801F07DFD174A79
:101AF00020681749904207D0884205D0154B98427C
:101B000002D0154B984204D1436C0125ED032B43C1
:101B100043642068012390420AD09A07904207D07C
:101B20000E4A904204D00E4A904201D0884207D11A
:101B300081680C4A1140062905D0D21F914202D07B
:101B4000016819430160002030BD0000002C0140F5
:101B500000400140004401400048014000040040B2
:101B6000000800400700010010B5014680310A79E5
:101B7000012A15D001220A7124228A6002681368A2
:101B80001468640864001460012252079343002221
:101B9000426600680360202088600A71104610BD0C
:101BA000022010BD10B504468030C068202801D046
:101BB000022010BD00290BD0002A09D00123A06803
:101BC0001B03984206D12069002803D1C80701D021
:101BD000012010BD0120E06600202067204602F0B1
:101BE00099F9010003D1E06E012802D001210846D5
:101BF00010BD206810220262EFF31080012383F3EE
:101C0000108823681C6814431C6080F31088EEE77A
:101C100010B50068084A90420DD100290BD00A4641
:101C200064230649064800F073FAFF220132034993
:101C30000348FFF7B7FF10BD0038014098000020AF
:101C400048020020704770B504460546803420796C
:101C500001281AD0012020712420A060286806687D
:101C600002685208520002602868826807235B06F7
:101C70009A430A438260284601F038FE28680660CD
:101C80002020A0600020207170BD022070BD70B5C2
:101C90000446054680342079012819D0012020719E
:101CA0002420A0602868066802685208520002607A
:101CB00028688268D200D2080A438260284601F070
:101CC00015FE286806602020A0600020207170BDED
:101CD000022070BD7047704770470000F8B5036878
:101CE0000446D96918689A68B94D0E462E402546B3
:101CF0008035002E75D0B74EB74F1640074037439A
:101D00006ED0CF0706D0C70504D501271F622B6907
:101D10003B432B618B0708D5D30706D027680223E6
:101D20003B622B6904273B432B614B0708D5D30744
:101D300006D0276804233B622B6902273B432B61B3
:101D40000B0709D520230340334305D02668082319
:101D500033622E691E432E610B0509D5430107D559
:101D600001232668DB0233622B69202633432B6173
:101D70002B69002B42D089060AD520210840C905CD
:101D80000A40104304D0616F002901D020468847E3
:101D9000286921688968490602D42821084232D07E
:101DA000204601F01DFF21688868400627D5EFF323
:101DB0001080012282F310888B68402293438B604D
:101DC00080F310882868002819D084498163286826
:101DD000FEF77EFC002811D02868816B0DE000E042
:101DE00017E08E0615D5012720263F07064017402D
:101DF0003E430ED0616FBFE020468847F8BD2046C5
:101E0000FFF76AFFF8BD2046FFF766FF0020286154
:101E1000F8BDE66E012E7DD1CE067BD5C60679D5FE
:101E20001020186222689068264640064036002836
:101E300057DA29680B6858680004000C45D0B78B46
:101E4000874242D9F08308680068800636D4EFF3F1
:101E50001080012181F310881168FF230133994319
:101E6000116080F31088EFF31080012181F3108856
:101E700021688A68520852008A6080F31088EFF364
:101E80001080012181F3108821688A6840239A43D9
:101E90008A6080F310882020E8600020E066EFF37D
:101EA0001080012181F3108821680B681022934370
:101EB0000B6080F310882868FEF7D4FB02202067AF
:101EC000B08BF18B401A81B207E0B18B81429FD178
:101ED000186880069CD5022020672046FFF798FEF0
:101EE000F8BDB08BF18B401A81B2F08B0028F7D08F
:101EF0000029F5D0EFF31080012383F310881368D5
:101F0000FF262136B343136080F31088EFF310806F
:101F1000012200E01BE082F31088226893682D4EB6
:101F2000F6433340936080F310882020E86000205F
:101F3000E0666067EFF31080012282F31088226868
:101F400013681025AB43136080F31088C3E7CE02FB
:101F500008D5560206D50120000518622046FFF775
:101F6000BAFEF8BD0E060BD501278026FF050640F8
:101F70003A40164304D0A16F002900D03CE7F8BDD9
:101F80004A0614D5420612D52046EFF310810122ED
:101F900082F310881A684024A2431A6081F31088E3
:101FA0002021A9600021816700F01DF9F8BD0A0217
:101FB00005D5420003D52046FFF78CFEF8BDC901C8
:101FC000FCD50028FADA2046FFF73CFEF8BD0000F9
:101FD0000F0800000100001020010004B53A0008BD
:101FE00070B5040005D025468035A868002802D0C9
:101FF00006E0012070BD00202871204600F026F880
:102000002420A86020680168490849000160A06A8E
:10201000002802D0204601F08BFC204601F030FE63
:102020000128E7D0206841680922D202914341602B
:10203000206881682A22914381602068016801221A
:1020400011430160204601F0D9FC70BD70B59AB013
:102050000646142113A8FEF796F84C216846FEF7B1
:1020600092F825493068884244D10120002500902B
:1020700001956846FEF7FEFD002801D0FEF7CCFA78
:102080001E480268012189030A4302600068084073
:1020900018901A484038426B02210A434263406B51
:1020A00013AA08401890C02023C2169513A91448FB
:1020B0001795FEF78BFC144C12482060A560322067
:1020C000E56060606561A561E56180202562206151
:1020D0002046FEF797FB002801D0FEF79DFA8020EE
:1020E0008451002211461B20A662FEF799FD1B2099
:1020F000FEF78AFD1AB070BD003801404010024062
:102100000004005008000240DC02002070477047C5
:10211000FFB5064604468036B06883B00D462028D9
:1021200002D0022007B0F0BD002D3BD0059800285A
:1021300038D00120A1680003814204D12069002821
:1021400001D1E8072ED1002030612120B060FEF7D8
:10215000FBFC0190274640370598B8820598F88225
:102160000120A1680003814202D12069002802D029
:102170000295002522E0002002901FE0002280212D
:10218000204601F01DFF002825D1029800280BD021
:102190002168007888620298401C0290B168212072
:1021A000884308D00120BDE728882168C005C00DFC
:1021B0008862AD1CF2E7F88A401EF882F88A019B1B
:1021C000002806980090D9D100224021204601F035
:1021D000F7FE002803D02020B0600320A2E72020D3
:1021E000B06000209EE77047FEE770B50024002134
:1021F000204600F0ADF80025002000F01FF96D1C0E
:10220000EDB2802DF8D3641CE4B2082CEFD370BD7E
:10221000F8B5074600240021204600F099F8002573
:102220007A20264646437019385C00F007F96D1C89
:10223000EDB27A2DF7D3641CE4B2042CEBD3F8BDD5
:1022400070B515461E460C46A94209D800F080F824
:1022500004E0304600F0F2F8641CE4B2AC42F8D975
:1022600070BD000070B50122052514022D0721461E
:102270002846FEF762FC2820FEF770FB002221466C
:102280002846FEF75AFC1420FEF768FB012221467F
:102290002846FEF752FC1420FEF760FBE22000F017
:1022A000ADF80A20FEF75AFBA22000F0A7F80220A2
:1022B000FEF754FBA02000F0A1F80220FEF74EFB31
:1022C000C82000F09BF80220FEF748FB222000F017
:1022D00095F80220FEF742FB812000F08FF81B48A2
:1022E000007800F08BF80220FEF738FB2D2000F07C
:1022F00085F80220FEF732FB2E2000F07FF8022046
:10230000FEF72CFB2F2000F079F80220FEF726FBC9
:10231000F82000F073F8002000F070F80220FEF7BB
:102320001DFB402000F06AF80220FEF717FBA420F6
:1023300000F064F80220FEF711FBAF2000F05EF819
:102340000220FEF70BFBFFF750FF70BD00000020DE
:1023500010B54007400F0C46B03000F04FF8200990
:10236000103000F04BF82007000F00F047F810BDC8
:10237000F7B516460D4615E020385F280FD2C7B2D4
:1023800029460098FFF7E4FF09490024F8004718A0
:10239000385D00F053F8641CE4B2082CF8D3AD1D8E
:1023A000EDB2761C3078002801D07A2DE4D9FEBD3C
:1023B0008C4F0008F7B516460D4617E020385F2809
:1023C00011D2C7B229460098FFF7C2FF0A4900247C
:1023D000F8004718385DC043C0B200F02FF8641C05
:1023E000E4B2082CF6D3AD1DEDB2761C307800288F
:1023F00001D07A2DE2D9FEBD8C4F000831B50D4CCD
:1024000001210022C9032046FEF797FB01252D0379
:10241000002229462046FEF790FB0023DB430122E1
:1024200069460548FFF72CF9012229462046FEF7A8
:1024300084FB38BD000400509801002031B50D4CDC
:102440000122D1032046FEF778FB01252D0300224F
:1024500029462046FEF771FB0023DB430122694633
:102460000548FFF70DF9012229462046FEF765FBD6
:1024700038BD0000000400509801002008B508484D
:10248000816B012211438163806B10400022009018
:1024900011460920FEF7C4FB0920FEF7B5FB08BD75
:1024A00000100240F0B587B014216846FDF76BFEBE
:1024B0003248426B02210A434263426B0A40059252
:1024C000416B012421434163416B21400591426BE3
:1024D00004210A434263406B22460840059089026A
:1024E0002748FEF72AFB0022E1032548FEF725FBDB
:1024F0000122052716023F0731463846FEF71DFB2D
:10250000092000030025694631C169461C4803952E
:10251000FEF75CFA029569463846009603950194E9
:10252000FEF754FA082021263604009069460196E9
:1025300002941348FEF74AFA10200090694601966B
:1025400002940F48FEF742FA202000906946019558
:1025500002940B48FEF73AFA002201210620FEF70A
:102560005FFB0620FEF750FB002201210720FEF74B
:1025700057FB0720FEF748FB07B0F0BD00100240F4
:102580000004005010B511480F490160FF210531CA
:10259000416000210722816012020161C2600122B4
:1025A000416152028261016208224162C26181621C
:1025B00007220163C2624163FEF7BDFF002801D01C
:1025C000FEF72AF810BD00000038004098010020F6
:1025D00010B58AB00024079408941C216846099419
:1025E000FDF7D1FD1748164901600F218460416055
:1025F000046115498461C160FFF70EFA002801D01B
:10260000FEF70AF8079407A90E480994FFF70AF99C
:10261000002801D0FEF700F8602000900194029499
:102620000422694604940748FFF762F9002801D0A4
:10263000FDF7F2FF0348FFF733F90AB010BD0000C1
:1026400000040040FC010020E703000010B51B4817
:1026500019490160E1214902416000218160C160A6
:1026600001618161C1610C220162426141623021DC
:10267000816201210903C16349000164FFF7B0FCD5
:10268000002801D0FDF7C8FF00210C48FFF7FFFA32
:10269000002801D0FDF7C0FF00210848FFF7D3FA5A
:1026A000002801D0FDF7B8FF0448FFF75DFA0028C5
:1026B00001D0FDF7B1FF10BD0038014048020020F5
:1026C00010B504480121417000210170817000F0B3
:1026D000EBFC10BD1800002010B50348002141702C
:1026E0000170FDF7A3FD10BD1800002010B501F02A
:1026F000B7FC10BD0148407870470000180000206A
:10270000F8B5564C607800281BD0277800200426A6
:1027100002220121524D3B0001F0CAFC09061A8633
:102720003D5C75788E971300A278002A07D0012AA5
:1027300008D0022A05D10321217060712EE0FFF735
:10274000CBFFF8BD2170E07005E000F007FBF8BD9D
:102750002379002B01D02071F7E7E378002B05D017
:10276000012B06D0022BF2D12171EEE72070A1706F
:1027700021E022700026F0002958E069FDF715FDE0
:10278000002806D0761CF6B2052EF4D300F090FD9A
:10279000F8BDE675FAE7A379002B01D0A07114E02B
:1027A0006379002B05D0012B08D0022BF0D1A17149
:1027B0000BE02070A27000F077FCF8BD607D00286F
:1027C00006D00020607501F04BFC00F0CBFDF8BD99
:1027D0000120F7E7227A002A03D0207200F026FEBB
:1027E000F8BDE279002A07D0012A07D0022AF7D1E2
:1027F00006212170A07210E02172EFE70520207001
:1028000000F036FCF8BD2670E171E7E7A37A002BF3
:1028100007D1E37A002B04D0A172E07200F000FB34
:10282000F8BD2670E271D9E7E27DD200AA58E261D4
:1028300021702071E17088E7627B002A01D060730B
:1028400000E0617300F0AEFBF8BDA27C002A01D06D
:10285000A07400E0A17400F045FBF8BD1800002052
:102860006C54000870B52848417800290FD00678CC
:102870000021042502240122330001F019FC09067D
:1028800009290C1821242D3A0800FFF725FF70BDF7
:102890000170827008E08279002A03D0817100F013
:1028A00061FD70BD0170847000F0FEFB70BD027AA6
:1028B000002A01D0017208E0032202704471EDE7A2
:1028C0000570C27101E00570C47100F0AFFD70BD0C
:1028D00002700171C27009E0437B002B03D0417389
:1028E00000F060FB70BD0270C470017100F036FA38
:1028F00070BD827C002A03D0817400F0F3FA70BDB1
:10290000072202700473EAE718000020F8B5914C22
:10291000617800291FD0277800210726022201258F
:102920003B0001F0C5FB09061B983B66188EA9E425
:102930001800884900288A7805DD0321501CFDF71E
:10294000D5FBA17005E0002805DA002A04D0521E4C
:10295000A27000F0A9FBF8BD0222F9E72279002A53
:1029600007D0207E002802D00020207609E0012038
:10297000FBE7784A0028D27809DD022A04D2521CEB
:102980000AE000F0EBF9F8BD26702173E0E00028C2
:10299000F9DA002AF7D0521EE270F2E7A279002A93
:1029A00013D06C490028897D03DD0A29EBD2491C2C
:1029B00004E00028E7DA0129E5D9491EC8B2A0756C
:1029C00000F0BCF900F0CEFCF8BD624A0028527954
:1029D00008DD022A01D2521C09E004202070E171B6
:1029E000217217E00028EFDA002AEDD0521E627142
:1029F000E8E7237A002B10D056490028497A03DDF6
:102A00000A2907D2491C04E0002803DA012901D968
:102A1000491E617200F00AFDF8BD4E4B0028DB79BB
:102A200003DD022BF8D25B1C04E00028F4DA002B53
:102A300002D05B1EE371EDE7032020706271A1718B
:102A4000C0E7E07A002804D00020E07200F0E8F946
:102A5000F8BD0120F9E73F490028CA7D02DD0521C4
:102A6000501C03E0002804DA0521101DFDF73EFB91
:102A7000E17500F01DFCF8BD364B667B1B7B002E1C
:102A80001FD0002B0BD0012B0CD032491031002865
:102A90000BDD002008560C2810DA401C0DE02D49F3
:102AA0000E31F4E72B490F31F1E7002806DA002058
:102AB00008560C22D04201DD401E087000F072FA68
:102AC000F8BD002808DD022B01D25B1C09E00820BC
:102AD00020706174A17429E00028F1DA002B02D083
:102AE0005B1E2373EAE72570E270217149E7194BF9
:102AF000A77C5B7C002F1CD0002B0BD01549143118
:102B0000002B0AD00222002809DD087890420DD25D
:102B1000401C0AE00F491331F2E70422F3E70028D2
:102B200004DA0878002801D0401E087000F0DAF9B5
:102B3000F8BD002803DD002BFAD16574F6E7002804
:102B4000F6DA002B02D05B1E6374EFE72670227367
:102B50006173B3E718000020FEE77047F8B50F4631
:102B60000B4615460092032104460022C90200F0DC
:102B70001BF82026002812D13B4600228021204647
:102B8000009500F07DF8002809D103213B46002282
:102B900049022046009500F007F8002803D0206E77
:102BA000304320660320F8BDFFB585B00E460446CD
:102BB000002069460E9D17460871FDF7C5FF411BB1
:102BC0000898451AFDF7C0FF0390206823210C30B8
:102BD00002902A4800684843000D684319E003202A
:102BE0004002864206D1002F04D10298017868463F
:102BF000017100790898401C0CD0FDF7A5FF0399DE
:102C0000401AA8420ED2002D0CD00098002833D0D4
:102C1000401E0090206880683040B842DFD100201C
:102C200009B0F0BD20684168E022914341606068CE
:102C3000C11FFD390CD10121A068C903884202D00F
:102C40004911884204D12068016840229143016003
:102C50000120A16A4003814207D121680A688243AA
:102C60000A6021680A6802430A60012040346077E4
:102C7000002020770320D3E70025CBE76800002061
:102C8000FFB581B01E4604460A9DFDF75DFF401B5F
:102C9000351AFDF759FF0746264800684001000D28
:102CA00068430CE0701C0BD0FDF74EFFC01BA84220
:102CB00012D2002D10D00098002837D0401E00906E
:102CC000206881680298884332D0002103988142AD
:102CD000E8D1002005B0F0BD20684168E0229143B2
:102CE00041606068C11FFD390CD10121A068C90392
:102CF000884202D04911884204D1206801684022EC
:102D0000914301600120A16A4003814207D12168FB
:102D10000A6882430A6021680A6802430A60012047
:102D200040346077002020770320D3E70025C7E7F1
:102D30000121CBE76800002070470000002809D07F
:102D40000A2800D90A2050214843034978300968ED
:102D5000886370470120F6E7FC010020F0B58FB0D2
:102D6000FFF743FA214D22A2142109A8EB6901F0D3
:102D700089F9287E002801D020A000E022A0254962
:102D80000024496B069109A906AE0791089028799D
:102D9000002802D0022C03D016E0E878844213D138
:102DA000A00033581CA21421684601F06BF9671C7F
:102DB000F8B2FF237F220021FFF742FAF8B26A46F9
:102DC0000021FFF7F7FA0BE0A000335813A21421FB
:102DD000684601F057F96A460021601CFFF7C8FAFF
:102DE000641C032CD3DB0FB0F0BD000018000020E2
:102DF0005052455345543A257300000044454C4118
:102E0000593A4D530000000044454C41593A4F4651
:102E1000460000006C540008257300002025730054
:102E200070B5FFF7E2F92B2126A20120FFF7A0FAE7
:102E30002648817A002915D0C07A14255524002807
:102E40002FD023A229460320FFF792FAFF230C225A
:102E500021460320FFF7F4F91FA221460320FFF7C4
:102E6000A9FA70BDC07A1425502400280CD018A2ED
:102E700029460320FFF77CFAFF231822214603206E
:102E8000FFF7DEF915A2E8E7FF231E2229460320FB
:102E9000FFF7D6F90EA229460320FFF78BFA0FA2FF
:102EA0000BE0FF231E2229460320FFF7C9F908A2E1
:102EB00029460320FFF77EFA07A221460320FFF7E9
:102EC00057FA70BD44454641554C54001800002047
:102ED00043414E43454C000059455300524553452C
:102EE00054000000F0B593B0FFF77FF9234D24A301
:102EF000E87C2946800020310858009022A2142145
:102F000003A801F0BFF8287D294680003431085815
:102F100000901FA31CA2142108A801F0B3F803A875
:102F2000019008A8002401AE0290687C844213D16D
:102F3000A000335819A214210DA801F0A3F8671CB2
:102F4000F8B2FF237F220021FFF77AF9F8B20DAA29
:102F50000021FFF72FFA0BE0A000335810A2142134
:102F60000DA801F08FF80DAA0021601CFFF700FAF0
:102F7000641C022CD9DB13B0F0BD00001800002047
:102F80004C4F572043555400252D39733A25730073
:102F9000424C5545544F4F594800000025730000DE
:102FA00020257300F0B599B0FFF71FF9254D0E20CD
:102FB0002856009024A325A2142104A801F062F849
:102FC0000F202856009026A320A2142109A801F062
:102FD00059F810202856009022A31CA214210EA8F4
:102FE00001F050F804A8019009A802900EA800244E
:102FF00001AE0390287B844213D1A00033581AA25B
:10300000142113A801F03EF8671CF8B2FF237F22B9
:103010000021FFF715F9F8B213AA0021FFF7CAF94A
:103020000BE0A000335811A2142113A801F02AF8D4
:1030300013AA0021601CFFF79BF9641C032CD9DB49
:1030400019B0F0BD1800002048490000252D337349
:103050002045513A252B30336420644200000000A3
:103060004D4944004C4F5700257300002025730044
:1030700010B5FFF7BAF8342104A20120FFF778F960
:1030800004A20D210320FFF773F910BD494E464FEE
:1030900000000000534F465457415245203A2056F5
:1030A00020312E3100000000F0B589B0FFF79DF807
:1030B000174A05AD07CA07C50024164E0C3DB07867
:1030C000844213D1A0002B5813A21421684600F0AB
:1030D000D9FF671CF8B2FF237F220021FFF7B0F869
:1030E000F8B26A460021FFF765F90BE0A0002B5803
:1030F0000AA21421684600F0C5FF6A460021601C40
:10310000FFF736F9641C032CD9DB09B0F0BD0000D1
:103110009454000818000020257300002025730037
:10312000F0B585B0FFF761F84C4CA078002826D0A8
:103130004BA20F20062148437A21081AC10F081814
:10314000C005010E0020FFF713F9FDF767FA00270D
:10315000C757FDF77BFA0678FDF76CFA05783B4612
:1031600043A21021684600F08DFF617A002909D042
:103170000020A27A002A08D0002905D005E040A24C
:103180000E20D7E70120F4E7E07A00280BD0FF23D8
:10319000792200210120FFF753F86A46002101201F
:1031A000FFF708F904E06A4600210120FFF7E0F884
:1031B000002E01D036A300E036A337A210216846C6
:1031C00000F060FF617A012906D00020A27A002A6F
:1031D00005D0012902D002E00120F7E7E07A0028BB
:1031E0000BD0FF23792200210220FFF729F86A463D
:1031F00000210220FFF7DEF804E06A4600210220E9
:10320000FFF7B6F8002D01D021A300E021A325A2ED
:103210001021684600F036FF617A022906D00020AE
:10322000A27A002A05D0022902D002E00120F7E7A5
:10323000E07A00280CD0FF23792200210320FEF73A
:10324000FFFF6A4600210320FFF7B4F805B0F0BD88
:103250006A4600210320FFF78BF8F7E704000020FF
:103260004F55545055542053455454494E475300DC
:103270004741494E533A20252B30336464420000C5
:10328000494E5055542053455454494E475300001D
:103290004F4E20004F4646004D5554453A20257369
:1032A00000000000494E56455253453A2025730010
:1032B00070B5FEF79AFF2E211DA20120FFF758F8E6
:1032C0001DA210210220FFF753F81DA24021022069
:1032D000FFF74EF81CA210210320FFF749F81CA2AB
:1032E0002E210320FFF744F81AA240210320FFF704
:1032F0003FF81A481A49C07D0623C0004418A27935
:1033000020795A4361791606360E0AD0FFF720F865
:10331000002504E0FF20FFF791F86D1CEDB2B542E7
:10332000F8D3617920792268FFF744F870BD000076
:1033300050524553455400004D5553494300000039
:1033400053504545434800004C4956450000000095
:10335000444A00004D4F4E49544F5200180000207F
:103360006C540008F0B595B0FEF73FFF244D687D22
:10337000002801D023A300E023A324A2142109A83C
:1033800000F080FEAB7D24A214210EA800F07AFE8E
:1033900024480024006C069009A807900EA806AEE9
:1033A0000890A879002802D0022C03D016E0687992
:1033B000844213D1A000335816A21421684600F0AD
:1033C00061FE671CF8B2FF237F220021FEF738FF61
:1033D000F8B26A460021FEF7EDFF0BE0A00033587B
:1033E00011A21421684600F04DFE6A460021601CBF
:1033F000FEF7BEFF641C032CD3DB15B0F0BD00004C
:10340000180000204F4E00004F4646004C43442019
:1034100044494D3A257300004252494748543A25E1
:10342000640000006C54000820257300F0B58FB0D4
:10343000FEF7DBFE1E4D1FA26B7A142109A800F0D7
:1034400021FE1F490024086D496D079009A80891C5
:1034500006AE0690287A002802D0002C03D016E091
:10346000E879844213D1A000335816A2142168468B
:1034700000F008FE671CF8B2FF237F220021FEF750
:10348000DFFEF8B26A460021FEF794FF0BE0A000D1
:1034900033580DA21421684600F0F4FD6A4600215D
:1034A000601CFEF765FF641C032CD3DB0FB0F0BD7E
:1034B00018000020434F4E54524153543A256400A3
:1034C0006C540008257300002025730010B5FDF72B
:1034D00041FB01F04FF910BD10B594B03C21684696
:1034E000FCF751FE002401200F9410941194400227
:1034F0001294FDF799FB02200090C0010390402038
:103500000590049408946846FDF7FAFD002801D060
:1035100072B6FEE707200F901094119400211294C8
:103520000FA8FDF7E7FC002801D072B6FEE714B043
:1035300010BD7047F0B50268244B0124A407244D48
:10354000244E984205D0A04203D0A84201D0B042F8
:1035500004D11746702297434A683A431E4F984257
:1035600010D0A0420ED0A8420CD0B0420AD01B4CC2
:10357000A04207D0B84205D0194CA04202D0194C45
:10358000A04204D103242402A243CC682243802415
:10359000A2434C6922438C68C4620C6884629842DE
:1035A00007D0B84205D00E4B984202D00D4B98423E
:1035B00001D10969016301680423194301600121F4
:1035C0004161BFF34F8F0260F0BD0000002C01404D
:1035D000000400400008004000400140002000407E
:1035E000004401400048014010B5CB06DB0E01212C
:1035F000046A99408C430462016A9A401143016253
:1036000010BD0000F0B5046A026A5208520002625E
:10361000436882691A4D2A4092080D68920015434A
:10362000022294438A682243164CA04208D0164EC8
:10363000B04205D0154EB04202D0154EB04207D16F
:10364000066A0427BE4306620826B243CE683243A8
:10365000A04208D00C4CA04205D00C4CA04202D095
:103660000B4CA04206D103242402A3434C691C4303
:103670008B69234343608561496841630262F0BD01
:103680008FFFFEFF002C014000400140004401403C
:103690000048014070B5046A026A10239A4302622E
:1036A00043688269184D2A4003252D02AA430D68FC
:1036B0002D021543202294438A6812012243134CA1
:1036C000A04209D1046A4026B44304628024A24384
:1036D000CC682401224308E00D4CA04205D00D4CDB
:1036E000A04202D00C4CA04208D10324A402A34360
:1036F0004C69A4001C438B699B0023434360856194
:1037000049688163026270BDFF8FFFFE002C01409B
:1037100000400140004401400048014070B5046A87
:10372000026AFF2301339A4302624268C369184D5B
:103730002B409B080D689B001D4301235B029C43AB
:103740008B681B022343134CA04209D1046A06155F
:10375000B4430462C414A343CC682402234308E0A6
:103760000D4CA04205D00D4CA04202D00C4CA04202
:1037700008D103242403A2434C69240114438A6919
:10378000120122434260C5614968C163036270BD92
:103790008FFFFEFF002C014000400140004401402B
:1037A0000048014030B5046A026A01231B039A43B2
:1037B00002624368C269134D2A4003252D02AA43C1
:1037C0000D682D0215430122520394438A681203A7
:1037D00022430D4CA04208D00C4CA04205D00C4C0A
:1037E000A04202D00B4CA04205D10124A403A34364
:1037F0004C69A40123434360C561496801640262C6
:1038000030BD0000FF8FFFFE002C01400040014052
:103810000044014000480140F0B5046A026A0126F4
:103820003604B24302624268436D104D2B400D686E
:103830001D4373009C430B891F040D4B2743984283
:1038400008D00C4B984205D00B4B984202D00B4B42
:10385000984204D113464A69B34312021A434260A4
:103860004565496881650762F0BD00008FFFFEFF76
:10387000002C01400040014000440140004801404C
:1038800030B5036A026A01242405A2430262426839
:10389000456D114C25400C6824022C4301256D0513
:1038A000AB430D892D051D430C4B984208D00C4BA2
:1038B000984205D00B4B984202D00B4B984205D151
:1038C00001239B049A434B699B021A43426044655F
:1038D0004968C165056230BDFF8FFFFE002C0140C5
:1038E000004001400044014000480140F8B5044652
:1038F000416E4034002915D0006881688068090154
:103900004D0F0A4E400F3746315C083F385CC0000F
:10391000FCF7ECFB6085785D715DC000FCF7E6FBB1
:103920002085F8BD01206085FAE70000EC5400080E
:1039300010B5018D090707D501684A680123DB032B
:103940009A43836B1A434A60018DC90707D0016807
:103950004A6801235B049A43C36A1A434A60018D93
:10396000890707D501684A6801231B049A43036B42
:103970001A434A60018D490707D501684A68012347
:103980009B049A43436B1A434A60018DC90607D5CD
:103990000268916801231B039943C36B194391602B
:1039A000018D890607D501688A6801235B039A4364
:1039B000036C1A438A60018D490612D503685A6860
:1039C00001210905446C8A4322435A60426C8A42B1
:1039D00007D10268516803235B059943836C19433F
:1039E0005160018D090607D501684A680123DB048F
:1039F000C06C9A4302434A6010BD0000FEB5054604
:103A00000026803504462E61FDF79EF8019020685F
:103A1000006820270007002817DA254800900022B8
:103A200039042046019B00F0CBFA00280DD0EFF3BB
:103A30001080012181F3108821680A6880239A434D
:103A40000A6080F31088AF6028E0206800684007B3
:103A500027D5174800900121002289052046019BA7
:103A600000F0AEFA00281CD0EFF31080012181F3A2
:103A7000108821680A68FF2321339A430A6080F383
:103A80001088EFF31080012181F3108821688A6883
:103A9000520852008A6080F31088EF602E71032074
:103AA000FEBDAF60EF60E66626672E710020FEBDAA
:103AB000FFFFFF0110B5806AFEF70EF910BD70B56B
:103AC000856A2C468034A068E668296889680906FA
:103AD00004D5212802D1284600F0B4F8286880686F
:103AE000400604D5222E02D1284600F079F820693C
:103AF0001021084320612846FEF7EEF870BD70B52E
:103B000002461168806A0968890636D4EFF310818D
:103B1000012383F3108803681C68FF250135AC433B
:103B20001C6081F31088EFF31081012383F3108868
:103B300003689C68640864009C6081F31088EFF35C
:103B40001081012383F3108803689C684025AC43EF
:103B50009C6081F3108820238C210B50C16E0129B9
:103B60000BD1EFF31081012383F3108803681C68E5
:103B70001025AC431C6081F3108800210167C16EE1
:103B8000012902D0FEF7C2FA70BD116849688AB2F5
:103B9000014640318B8B934200D9CA83C98B591A95
:103BA00089B2FEF735F870BD10B50346806A012171
:103BB0000167C16E012902D0FEF7A9FA10BD0146C6
:103BC00040318A8B5408CC831B685B689BB29A4255
:103BD00000D3CB83C98B511A89B2FEF719F810BDF7
:103BE00010B5EFF31081012282F310880268136888
:103BF000FF242134A343136081F31088EFF3108175
:103C0000012282F31088026893680D4C2340936070
:103C100081F31088C16E01290BD1EFF310810122CD
:103C200082F31088026813681024A343136081F3A1
:103C3000108820228C210A500021C166416710BDE6
:103C4000FEFFFFEF10B5EFF31081012282F3108821
:103C500002681368C024A343136081F31088EFF354
:103C60001081012282F31088026893680124E40520
:103C7000A343936081F3108820218030816010BDC0
:103C8000F8B50446016880682569E76928436569D5
:103C900000263D432843904A904B0D68904F3D408D
:103CA00005430D602168486803252D03A843E56896
:103CB000284348602168A069914203D0994201D00D
:103CC000256A28438D68874F3D4005438D602068F5
:103CD000C16A656A090909012943C162824D2168E7
:103CE0008248A9420AD140698007800F4ED001283E
:103CF0005DD002284AD0032847D15AE07C4DA94222
:103D00000AD140690C25284040D004283ED008281C
:103D10004BD00C2839D14CE0764DA9420AD14069EC
:103D20003025284032D0102841D020283DD03028DE
:103D30002BD13EE0704DA94214D0704DA94211D054
:103D40006F4DA9420ED091420ED1456903208002E9
:103D5000054007D0012080022D1A28D02D1A24D02A
:103D6000281A10E0002011E099420ED14069032585
:103D70002D0228400AD0FF38401E18D0FF38401EC0
:103D800013D0FF380138002813D010205D4D5E4F4E
:103D9000914201D0994240D100280CD0022814D081
:103DA00004280BD0082837D10DE00220EEE70420CC
:103DB000ECE70820EAE7FDF749F901E0FDF75AF9D9
:103DC000050002D17EE00125ED03606A4000395A0A
:103DD00028460091FCF78AF96768790079188142D2
:103DE0006BD83903814268D3002328461946009ACC
:103DF000FCF792F9020E0902030278081143181821
:103E0000002251413A460023FCF786F903210902BA
:103E10003E4A411A914253D94FE00121E269C90358
:103E20008A4228D1002806D002280DD0042805D0C7
:103E3000082842D107E0FDF709F901E0FDF71AF97A
:103E4000050001D13EE00D46606A4000395A28461F
:103E5000FCF74CF9616840004A088018FCF746F905
:103E600001462B4A1039914227D8511C01400007C6
:103E7000400F084324E0002806D002280DD0042873
:103E800005D0082819D107E0FDF7E0F801E0FDF7BB
:103E9000F1F8050001D115E00D46606A4000395A7D
:103EA0002846FCF723F961684A088018FCF71EF9D8
:103EB0000146174A1039914201D9012602E080B229
:103EC0002168C860204601214030418501850020DD
:103ED0006067A0673046F8BD008000400084004065
:103EE000F369FFCFFFF4FF1100380140401002409A
:103EF0000044004000480040004C0040005000409A
:103F0000003C01400024F400CC540008FFFC0F00EA
:103F1000EFFF000070B504468165403082830020C9
:103F20002546803528612221E9602968002919D0B9
:103F3000204BCB622B68204919632B681F495963BA
:103F4000296813468863A66D2168324624312868A3
:103F5000FCF7BEFC002805D0102028612020E86076
:103F6000012070BD206900280CD0EFF310800121E2
:103F700081F3108821680A68FF2301331A430A601D
:103F800080F31088EFF31080012181F310882268FC
:103F900093680B43936080F31088EFF3108081F3F4
:103FA000108821688A6840231A438A6080F3108849
:103FB000002070BDFF3A0008A93B0008BF3A000886
:103FC000FFB581B005460E46044680350A9F32E0B3
:103FD000781C30D0FCF7B8FD0499401AB84218D8C4
:103FE000002F16D020680168490724D5802E22D0E2
:103FF000402E20D0C169C94309070CD408260662A7
:104000002046FFF7EDFD2E6100202871012005B04C
:10401000F0BD0320FBE7C069C04300050BD40120BD
:104020002168C00208622046FFF7DAFD20202861DF
:1040300000202871EDE72068C1693046884305D02B
:10404000002103988142C3D00020E0E70121F8E776
:1040500010B50248FDF742FE10BD000048020020E6
:1040600010B50648417D002903D0807DFEF766FE2D
:1040700010BD034900200968886310BD18000020A6
:10408000FC0100200FB41CB50A46521E019200909C
:1040900007A9064B6A46069800F04AF8009A0021E4
:1040A00011701CBC08BC04B018470000294500086A
:1040B00030B47446641E2578641CAB4200D21D46A1
:1040C000635D5B00E31830BC184700008307FF22E4
:1040D000DB0E9A408907090E9940002808DB830807
:1040E00009489B001B1818689043084318607047E4
:1040F0000007000F0838830804489B001B18D86984
:1041000090430843D861704700E400E000ED00E010
:1041100002E008C8121F08C1002AFAD17047704790
:10412000002001E001C1121F002AFBD170470000EE
:10413000FFB58FB00546002606E025280AD0129A62
:10414000119990476D1C761C28780028F5D13046CF
:1041500013B0F0BD002402940121B54A009400E0A0
:1041600004436D1C2B780846203B98401042F7D141
:1041700028782A280ED002222878014630390929C9
:1041800016D802990A2359433039401814436D1C3C
:104190000290F1E7109802C802911090002904DA09
:1041A00001204003044348420290022004436D1C56
:1041B00028782E2817D10420044368786D1C2A28FB
:1041C0000CD110986D1C02C8009110900BE0009962
:1041D0000A225143303940186D1C0090287801465E
:1041E00030390929F3D928786C2810D006DC4C28FE
:1041F0001AD068280ED06A2817D104E0742813D08A
:104200007A2812D110E00120400504430CE001217E
:10421000090501E0032109050C436978814203D1B6
:104220000120000524186D1C6D1C2878692874D0A5
:1042300006DC00288BD0632827D0642806D16CE0E8
:104240006E2808D073282CD0752878D0129A11992E
:104250009047761C5FE06002400F022809D00328D7
:104260000DD00428109801680DD00E60001D10902C
:1042700051E01098F21701680E604A60F6E7109856
:1042800001680E80F2E70E70F0E710986A46017838
:104290001173001D10900020507303A8019001209D
:1042A00005E0109802C8019110900020C0436107FA
:1042B0000CD5002700E07F1C00998F420FDA87425F
:1042C000F9DB0199C95D0029F5D108E0002700E07C
:1042D0007F1C8742FCDB0199C95D0029F8D1029857
:1042E0002146C01B0290129B119A00F0B3F880196E
:1042F000C61907E0019801990078491C0191129AAA
:10430000119990477F1EF5D22146129B119A02986F
:1043100000F090F886196D1C16E70A20019010999C
:1043200001C910916102490F032900D100B204298B
:1043300000D140B2002803DA40422D2103E00DE015
:10434000210504D52B216A461173012103E0E10701
:1043500011D02021F7E70CAF0C9114E00A20019056
:10436000109901C910916102490F032900D180B24F
:10437000042900D1C0B20021EDE70199FBF7B6FE98
:1043800030317F1E39700028F7D104A8C01B2030BF
:104390000190600704D5012000048443009801E0E7
:1043A000012000900199884201DD401A00E00020C0
:1043B000411800900C9809180298401A0290E003E6
:1043C00006D42146129B119A029800F043F88619F0
:1043D00000200D9008E003A9085C129A11999047FB
:1043E0000D98401C761C0D900C998842F3DBE0037D
:1043F0000CD52146129B119A029800F02BF88619D1
:1044000004E0129A302011999047761C0099481EBA
:1044100000900029F5DC05E03878129A7F1C11998C
:104420009047761C0199481E01900029F4DC6BE747
:1044300009280100F8B5044600251E4617468804E1
:1044400004D405E039462020B0476D1C641EF9D520
:104450002846F8BDFFB50446002581B01E46C803B6
:1044600001D5302700E02027880404D505E0384630
:104470000399B0476D1C641EF9D5284605B0F0BD00
:1044800010B502460249034800F006F810BD0000CE
:1044900027230000C8540008FEB507460D461646FF
:1044A0001046FBF77BFE84B2A01D020A69460A7023
:1044B0004870280A08714D7164230422184919486C
:1044C000FDF726FE002829D13120694608726423B1
:1044D000012202A91348FDF71BFE00281ED1642308
:1044E000022269460F48FDF713FE002816D1642307
:1044F000042239460B48FDF70BFE00280ED1642339
:10450000022201A90748FDF703FE002806D1FF2378
:104510002D33224631460348FDF7FAFDFEBD00006B
:10452000C4540008480200204A68002A06D00A68DD
:10453000531C0B6010704868401E4860704789002B
:104540000818C2607047000070B50446A168007981
:1045500088470146E078420702D02288521C228018
:10456000C309C7228B420FD00623D84101235B0722
:10457000C0181A23D84183065B0FE070032B05D3C4
:104580004006400EC90108431040E070C0B2410728
:10459000490FFF260025F5360B00FFF789FD0604BD
:1045A00021447FB69EB6C1094006C00F8142A07863
:1045B00011D10007000FA070E168002901D020464A
:1045C00088472580A07800090001401CA070E07891
:1045D0007FE0E07070BD0007000F8030A07070BDFC
:1045E000C1094006C00F81420AD0A0780007000F21
:1045F0001030A0702169002962D0204688475FE012
:10460000208843498842EAD9A0780007000F50303B
:10461000A070216A002901D020468847E078C008B0
:10462000C000401DD5E7C1094006C00F81421ED120
:10463000A0780007000FA070E168002901D0204693
:104640008847A078C143090706D00421C8418906DC
:1046500040181C21C841A0706169002901D0204682
:1046600088472580E078C008C000C01CB1E72088DA
:10467000B042B4D9A0780007000F012802D0022868
:1046800004D041E03030A070A16902E04030A07059
:10469000E169002938D02046884735E04206C10943
:1046A000D20F914212D0A0780007000F1030A070F6
:1046B0002169002901D0204688472088B04223D2B2
:1046C0002580E078C008C000801C82E72188B142C4
:1046D00085D9C008C000401C7BE7C1094006C00F57
:1046E0008142A0780AD10007000F6030A070616A93
:1046F000002900D173E72046884770BD0007000FEE
:104700001030A0702169C4E7E078C008C00060E7FD
:10471000B80B0000F8B50F461E46154604462C217E
:10472000FBF731FDA0780007000F8030A070A76074
:10473000E078002D09D04006400EBF210840E9076F
:10474000490E0843E0702671F8BD80210843F4E764
:10475000074A11680B4605E0814202D10020C043A0
:104760007047896A0029F7D1836210600020704782
:104770005800002010B50548046803E02046FFF704
:10478000E3FEA46A002CF9D110BD000058000020FF
:10479000FCF7E8F9FEF7A0FEFDF784FEFDF7F2FE58
:1047A000FDF716FFFDF76AFEFDF750FF274800688A
:1047B0000168102211430160120125492348FDF7C9
:1047C000F1F904212348FDF75FF92249192009680E
:1047D00040018863FF20F530FCF7C0F8FDF786FF45
:1047E0001B4800231A461C492C38FFF793FF184832
:1047F0001A4A03212C38FFF7A2FE1548184A042153
:104800002C38FFF79CFE1248164A05212C38FFF77A
:1048100096FE0F482C38FFF79BFFFDF723FD12484B
:10482000FDF7F6FC1148FCF799F8FDF7DEFCFBF705
:10483000EBFEFBF707FDFDF75DFF002801D1FBF75D
:10484000B3FD0A20FCF78AF8F5E7000048020020D3
:1048500098000020FC010020AD480008974800089F
:10486000714800088148000884520008B80B000015
:1048700010B5FDF73FFF002801D1FBF733FD10BD58
:1048800010B5FDF737FF002802D0FDF7EBFF10BD94
:10489000FDF716FF10BD10B5FDF72CFF002802D064
:1048A000FDF72EFF10BDFBF7DFFC10BD10B5082192
:1048B0000148FCF73DF910BD0004005000E010086D
:1048C0000810E0000007081010080700001010F89A
:1048D000000000000010101F101000000030080839
:1048E0000888700000181412111018000030088891
:1048F00088483000000C101010110E00008040207D
:10490000F8000000000302121F12120000F888488D
:1049100048488800000C101010100F0000E01088AC
:1049200088980000000F111010100F0000380808C0
:10493000C83808000000001F0000000000708888D0
:1049400088887000000E111010110E0000F0080889
:104950000890E00000001911110807000000000095
:10496000000000000000000000000000000000F255
:10497000000000000000001F00000000000E00000A
:104980000E000000000000000000000040F8404061
:10499000F8400000043F04043F040000007088FC5D
:1049A000083000000018207F220C000018A4C83036
:1049B000CE93610006192618645231000078C4A411
:1049C00098600000001E2125122C320000000E000D
:1049D0000000000000000000000000000000F00CDB
:1049E0000200000000000718200000000000020C78
:1049F000F000000000002018070000000828182818
:104A00000800000000000000000000000010107C02
:104A1000101000000000000F000000000000000067
:104A200000000000003830000000000000101010EE
:104A30001010000000000000000000000000000056
:104A40000000000000303000000000000000C0380E
:104A500006000000601806010000000000E01008D9
:104A60000810E0000007081010080700001010F8F8
:104A7000000000000010101F101000000030080897
:104A800008887000001814121110180000300888EF
:104A900088483000000C101010110E0000804020DB
:104AA000F8000000000302121F12120000F88848EC
:104AB00048488800000C101010100F0000E010880B
:104AC00088980000000F111010100F00003808081F
:104AD000C83808000000001F00000000007088882F
:104AE00088887000000E111010110E0000F00808E8
:104AF0000890E00000001911110807000000606034
:104B000000000000000006060000000000006060D9
:104B100000000000003836060000000000102844A5
:104B20008200000000000001020400000028282884
:104B3000282800000005050505050000008244281E
:104B4000100000000004020100000000003008888E
:104B500048300000000019000000000000F008C804
:104B600028C8F0000007182724231C0000E01808BC
:104B700018E00000001F0101011F000000F88888F4
:104B800088700000001F1010100F000000F00808CF
:104B900008180000000F10101008000000F80808A6
:104BA00008F00000001F1010100F000000F88888A7
:104BB00088080000001F10101010000000F88888FE
:104BC00088080000001F00000000000000F0080836
:104BD00048780000000F1010121E000000F88080BE
:104BE00080F80000001F0000001F0000000808F807
:104BF000080800000010101F101000000000080836
:104C0000F8000000002020201F00000000F8806055
:104C100018080000001F00010618000000F800003E
:104C200000000000001F101010100000F830C0300D
:104C3000F80000001F0001001F00000000F830C055
:104C400000F80000001F0001061F000000F0080827
:104C500008F00000000F1010100F000000F8888806
:104C600088700000001F00000000000000F008082D
:104C7000C8F00000000F1014122F000000F8888800
:104C8000C8700000001F000106180000007088486E
:104C900048300000000C1110100F0000080808F840
:104CA000080808000000001F0000000000F80000D5
:104CB00000F80000000F1010100F000008708000B6
:104CC000807008000000071807000000F800E000EE
:104CD000E000F800011E031C031E0100081860809C
:104CE0006018080018060100010618000830C0000E
:104CF000C030080000001F0000000000080888689D
:104D00001808000018141211101800000000FE020C
:104D10000200000000007F40400000000638C00094
:104D2000000000000000010618600000000202FE02
:104D3000000000000040407F00000000040201026B
:104D4000040000000000000000000000000000005F
:104D500000000000808080808080800000010200D0
:104D60000000000000000000000000000040A0A0C3
:104D7000A0C00000000E1111091F100000FF20202C
:104D800020C00000001F1010100F000000C02020E5
:104D900020400000000F10101008000000C020206C
:104DA000FF000000000F10101F00000000C0A0A0B6
:104DB000A0C00000000F1111110900000020FC220A
:104DC0000200000000001F000000000000C02020C2
:104DD000E0200000004F9090907F000000FF202016
:104DE00020C00000001F0000001F00000020E400A1
:104DF0000000000000101F1000000000000020E470
:104E0000000000000040807F0000000000FF806084
:104E100020000000001F01020C1000000002FF0033
:104E20000000000000101F1000000000E020E02043
:104E3000E00000001F001F001F00000000E0202015
:104E400020C00000001F0000001F000000C0202044
:104E500020C00000000F1010100F000000E0202004
:104E600020C0000000FF1010100F000000C0202024
:104E7000E0000000000F1010FF00000000E0202004
:104E800020000000001F00000000000000C0A06023
:104E900020000000000911120C00000020FC20205E
:104EA00000000000000F10100000000000E00000F3
:104EB00000E00000000F1010101F000020C00000D4
:104EC000C020000000010E0E01000000E000E00024
:104ED000E0000000031C031C030000002040804091
:104EE00020000000100807081000000020C000008B
:104EF000C020000000414E3E010000002020A060C4
:104F00002000000018141211180000000000807624
:104F1000020000000000001F20000000000000FF51
:104F200000000000000000FF00000000000276808A
:104F30000000000000201F00000000004020204072
:104F40004020000000000000000000000000FE9271
:104F500092FE00F80808FF0808F8000000007F240F
:104F6000247F001F00407F40001F0000403010FFE2
:104F7000101000FE4242FF4242FE0000000000FF0F
:104F8000403000010204FF040201000000000000A4
:104F90000000000000005F000000000000070007A4
:104FA00000000000147F147F14000000242A7F2AD0
:104FB00012000000231308646200000036495522E5
:104FC000500000000005030000000000001C22410A
:104FD000000000000041221C0000000014083E08F0
:104FE0001400000008083E080800000000503000CF
:104FF00000000000080808080800000000606000C9
:105000000000000020100804020000003E51494545
:105010003E00000000427F40000000004261514914
:10502000460000002141454B310000001814127F5A
:105030001000000027454545390000003C4A494919
:10504000300000000171090503000000364949499C
:1050500036000000064949291E00000000363600CF
:105060000000000000563600000000000814224135
:10507000000000001414141414000000412214084D
:105080000000000002015109060000003249794188
:105090003E0000007E1111117E0000007F49494949
:1050A000360000003E414141220000007F41412284
:1050B0001C0000007F494949410000007F0909099F
:1050C000010000003E4149497A0000007F080808BD
:1050D0007F00000000417F41000000002040413F70
:1050E000010000007F081422410000007F40404082
:1050F000400000007F020C027F0000007F040810C7
:105100007F0000003E4141413E0000007F09090947
:10511000060000003E4151215E0000007F09192970
:1051200046000000464949493100000001017F0165
:10513000010000003F4040403F0000001F20402091
:105140001F0000003F4038403F0000006314081477
:10515000630000000708700807000000615149451E
:1051600043000000007F41410000000002040810DD
:10517000200000000041417F000000000402010205
:1051800004000000404040404000000001020400D4
:105190000000000020545454780000007F4844442C
:1051A000380000003844444420000000384444489B
:1051B0007F0000003854545418000000087E090194
:1051C000020000000C5252523E0000007F0804040E
:1051D0007800000000447D40000000002040443D75
:1051E000000000007F1028440000000000417F40C4
:1051F000000000007C041804780000007C0804040F
:105200007800000038444444380000007C14141432
:1052100008000000081414187C0000007C08040436
:10522000080000004854545420000000043F44404B
:10523000200000003C4040207C0000001C2040205A
:105240001C0000003C4030403C0000004428102876
:10525000440000000C5050503C0000004464544C8A
:1052600044000000000836410000000000007F00FC
:10527000000000000041360800000000080408108B
:105280000800000000000000000000000000000016
:10529000000000000000000000000000000000000E
:1052A00000000080C0E0E0C0C0C0C0C0E0C0C0805E
:1052B000000000000080C0E0F0703030309090C0FE
:1052C000C0C0C0C0C0C0C0C0C0808080000000009E
:1052D000000000000000000000000000F008F4548E
:1052E00054F408F00000000000000000000000007E
:1052F00000000000000000000000000000000000AE
:10530000000000000000000000000000000000009D
:105310000000000000000000000000183E1F1F1FDA
:105320001F3F71F0E0800001010303030303030347
:1053300001010804060607030303090909090919FD
:105340001B333333737373737373393931303030C4
:105350002000000000000001030202030100000021
:10536000000000000000000000000000000000003D
:10537000000000000000000000000000000000002D
:10538000000000000000000000000000000000001D
:10539000000060F0E0C08080808080C0F0FF7F0F60
:1053A000F0F80C0EDCFC00FC7C0000FCFC00FC7C3B
:1053B0000C0EFEFCC0F81C0C9CFF1FE0FFF7F81859
:1053C0000C0CF8FC00FCFC0C0CFEFCC0F81C0E0CD9
:1053D000FCFC0000000000000000000000000000D5
:1053E00000000000000000000000000000000000BD
:1053F00000000000000000000000000000000000AD
:105400000000000000000000000000000001030791
:105410000707070707030100000001030607030051
:10542000000307020303000203000002030001035C
:105430000702030300030301030302000301020345
:105440000000000303183B37323B1F03000000003D
:10545000000000000000000000000000000000004C
:10546000000000000000000000000000545500088B
:105470000210050068550008024006005C5500084F
:105480000310040070550008032E02009455000814
:1054900003400700785500088C5500089C5500080B
:1054A0007855000800000000000000007855000852
:1054B000000000000000000000000000845500080B
:1054C000AC5500085555555A7F00000101000200F7
:1054D0000400060008000A000C0010002000400034
:1054E000800000010101010307010000080402041B
:1054F00008010101000000000000000000000000A1
:10550000000000000000000000000000000000009B
:105510000000000001000000020000000300000085
:105520000400000006000000070000000800000062
:105530000900000000000000000000000000000062
:105540000000000001000000020000000300000055
:10555000040000004D555349430000004C49564596
:10556000000000004F4646005350454543480000A8
:10557000444A00004F4E00003C2D52455455524EB7
:1055800000000000494E464F0000000041554449CC
:105590004F0000004D4F4E49544F52005345545454
:1055A000494E4753000000005457530044454641BC
:1055B000554C5400313030487A00000031323048C8
:1055C0007A000000313530487A0000003830487ADF
:1055D000000000007B22636F6F6B6965223A222511
:1055E00073222C226F7073223A22736574496E768F
:1055F00065727365222C22696E417272223A5B7B5E
:1056000022696E646578223A2230222C2276616CFF
:10561000223A222563227D2C7B22696E64657822E2
:105620003A2231222C2276616C223A222563227D95
:105630002C7B22696E646578223A2232222C2276F3
:10564000616C223A222563227D2C7B22696E64657F
:1056500078223A2233222C2276616C223A22256368
:10566000227D5D2C226F7574417272223A5B5D7DE2
:10567000000000007B226F7073223A227365744D24
:10568000757465222C22696E417272223A5B7B220C
:10569000696E646578223A2230222C2276616C226F
:1056A0003A222563227D2C7B22696E646578223A3A
:1056B0002231222C2276616C223A222563227D2C13
:1056C0007B22696E646578223A2232222C2276612E
:1056D0006C223A222563227D2C7B22696E646578D8
:1056E000223A2233222C2276616C223A222563222E
:1056F0007D5D2C226F7574417272223A5B5D7D0074
:105700007B22636F6F6B6965223A2231222C226FF4
:105710007073223A227365744761696E4462222C69
:1057200022696E417272223A5B7B22696E646578EF
:10573000223A2230222C2276616C223A22256422DF
:105740007D2C7B22696E646578223A2231222C22DC
:1057500076616C223A222564227D2C7B22696E645C
:105760006578223A2232222C2276616C223A222556
:1057700064227D2C7B22696E646578223A22332272
:105780002C2276616C223A222564227D5D2C226FC8
:105790007574417272223A5B5D7D00007B22636FFB
:1057A0006F6B6965223A222573222C226F70732257
:1057B0003A22736574496E7665727365222C22698C
:1057C0006E417272223A5B5D2C226F757441727267
:1057D000223A5B7B22696E646578223A2230222C61
:1057E0002276616C223A222563227D2C7B22696E0F
:1057F000646578223A2231222C2276616C223A2288
:105800002563227D2C7B22696E646578223A2232E0
:10581000222C2276616C223A222563227D2C7B2267
:10582000696E646578223A2233222C2276616C22DA
:105830003A222563227D5D7D000000007B226F708F
:1058400073223A227365744D757465222C22696E39
:10585000417272223A5B5D2C226F75744172722222
:105860003A5B7B22696E646578223A2230222C22D0
:1058700076616C223A222563227D2C7B22696E643C
:105880006578223A2231222C2276616C223A222536
:1058900063227D2C7B22696E646578223A22322253
:1058A0002C2276616C223A222563227D2C7B226990
:1058B0006E646578223A2233222C2276616C223A79
:1058C000222563227D5D7D007B22636F6F6B69659E
:1058D000223A2231222C226F7073223A227365748D
:1058E0004761696E4462222C22696E417272223ACB
:1058F0005B5D2C226F7574417272223A5B7B226968
:105900006E646578223A2230222C2276616C223A2B
:10591000222564227D2C7B22696E646578223A22DE
:1059200031222C2276616C223A222564227D2C7B46
:1059300022696E646578223A2232222C2276616CCA
:10594000223A222564227D2C7B22696E64657822AE
:105950003A2233222C2276616C223A222564227D5F
:105960005D7D000084590008000000206C000000EC
:1059700010410008F05900086C000020D406000017
:10598000204100081200000000010000000000009B
:105990000000000100000000000000000000000006
:1059A00000000000000500000000000000000000F2
:1059B000000105000000000054550008645500086F
:1059C000CC550008B4550008BC550008C455000863
:1059D0006455000874550008A85500080000000030
:1059E0000100000004000000000000000024F4009A
:04000005080000BD32
:00000001FF
